{
  "contractName": "Faucet",
  "abi": [
    {
      "inputs": [
        {
          "internalType": "address",
          "name": "",
          "type": "address"
        }
      ],
      "name": "funders",
      "outputs": [
        {
          "internalType": "bool",
          "name": "",
          "type": "bool"
        }
      ],
      "stateMutability": "view",
      "type": "function",
      "constant": true
    },
    {
      "inputs": [
        {
          "internalType": "uint256",
          "name": "",
          "type": "uint256"
        }
      ],
      "name": "lutFunders",
      "outputs": [
        {
          "internalType": "address",
          "name": "",
          "type": "address"
        }
      ],
      "stateMutability": "view",
      "type": "function",
      "constant": true
    },
    {
      "inputs": [],
      "name": "numberOfFunders",
      "outputs": [
        {
          "internalType": "uint256",
          "name": "",
          "type": "uint256"
        }
      ],
      "stateMutability": "view",
      "type": "function",
      "constant": true
    },
    {
      "inputs": [],
      "name": "owner",
      "outputs": [
        {
          "internalType": "address",
          "name": "",
          "type": "address"
        }
      ],
      "stateMutability": "view",
      "type": "function",
      "constant": true
    },
    {
      "stateMutability": "payable",
      "type": "receive",
      "payable": true
    },
    {
      "inputs": [],
      "name": "emitLog",
      "outputs": [
        {
          "internalType": "bytes32",
          "name": "",
          "type": "bytes32"
        }
      ],
      "stateMutability": "pure",
      "type": "function",
      "constant": true
    },
    {
      "inputs": [
        {
          "internalType": "address",
          "name": "newOwner",
          "type": "address"
        }
      ],
      "name": "ransferOwner",
      "outputs": [],
      "stateMutability": "nonpayable",
      "type": "function"
    },
    {
      "inputs": [],
      "name": "addFunds",
      "outputs": [],
      "stateMutability": "payable",
      "type": "function",
      "payable": true
    },
    {
      "inputs": [
        {
          "internalType": "uint256",
          "name": "withdrawAmount",
          "type": "uint256"
        }
      ],
      "name": "withdraw",
      "outputs": [],
      "stateMutability": "nonpayable",
      "type": "function"
    },
    {
      "inputs": [],
      "name": "getFunders",
      "outputs": [
        {
          "internalType": "address[]",
          "name": "",
          "type": "address[]"
        }
      ],
      "stateMutability": "view",
      "type": "function",
      "constant": true
    },
    {
      "inputs": [
        {
          "internalType": "uint8",
          "name": "index",
          "type": "uint8"
        }
      ],
      "name": "getFundertIndex",
      "outputs": [
        {
          "internalType": "address",
          "name": "",
          "type": "address"
        }
      ],
      "stateMutability": "view",
      "type": "function",
      "constant": true
    }
  ],
  "bytecode": "0x608060405234801561001057600080fd5b50336000806101000a81548173ffffffffffffffffffffffffffffffffffffffff021916908373ffffffffffffffffffffffffffffffffffffffff160217905550610bfe806100606000396000f3fe6080604052600436106100955760003560e01c8063a26759cb11610059578063a26759cb146101ac578063bb52816f146101b6578063dc79a7fc146101df578063ea63a0441461020a578063f42c13bf146102355761009c565b8063031b3677146100a15780631f8947ea146100de5780632e1a7d4d1461011b57806337ab8877146101445780638da5cb5b146101815761009c565b3661009c57005b600080fd5b3480156100ad57600080fd5b506100c860048036038101906100c3919061072a565b610260565b6040516100d59190610772565b60405180910390f35b3480156100ea57600080fd5b50610105600480360381019061010091906107c3565b610280565b60405161011291906107ff565b60405180910390f35b34801561012757600080fd5b50610142600480360381019061013d91906107c3565b6102b3565b005b34801561015057600080fd5b5061016b60048036038101906101669190610853565b61034a565b60405161017891906107ff565b60405180910390f35b34801561018d57600080fd5b5061019661038a565b6040516101a391906107ff565b60405180910390f35b6101b46103ae565b005b3480156101c257600080fd5b506101dd60048036038101906101d8919061072a565b6104ce565b005b3480156101eb57600080fd5b506101f461059f565b604051610201919061088f565b60405180910390f35b34801561021657600080fd5b5061021f6105a5565b60405161022c9190610968565b60405180910390f35b34801561024157600080fd5b5061024a61069f565b60405161025791906109a3565b60405180910390f35b60026020528060005260406000206000915054906101000a900460ff1681565b60036020528060005260406000206000915054906101000a900473ffffffffffffffffffffffffffffffffffffffff1681565b8067016345785d8a00008111156102ff576040517f08c379a00000000000000000000000000000000000000000000000000000000081526004016102f690610a41565b60405180910390fd5b3373ffffffffffffffffffffffffffffffffffffffff166108fc839081150290604051600060405180830381858888f19350505050158015610345573d6000803e3d6000fd5b505050565b6000600360008360ff16815260200190815260200160002060009054906101000a900473ffffffffffffffffffffffffffffffffffffffff169050919050565b60008054906101000a900473ffffffffffffffffffffffffffffffffffffffff1681565b6000339050600260008273ffffffffffffffffffffffffffffffffffffffff1673ffffffffffffffffffffffffffffffffffffffff16815260200190815260200160002060009054906101000a900460ff166104cb5760006001600081548092919061041990610a90565b9190505590506001600260008473ffffffffffffffffffffffffffffffffffffffff1673ffffffffffffffffffffffffffffffffffffffff16815260200190815260200160002060006101000a81548160ff021916908315150217905550336003600083815260200190815260200160002060006101000a81548173ffffffffffffffffffffffffffffffffffffffff021916908373ffffffffffffffffffffffffffffffffffffffff160217905550505b50565b60008054906101000a900473ffffffffffffffffffffffffffffffffffffffff1673ffffffffffffffffffffffffffffffffffffffff163373ffffffffffffffffffffffffffffffffffffffff161461055c576040517f08c379a000000000000000000000000000000000000000000000000000000000815260040161055390610b4a565b60405180910390fd5b806000806101000a81548173ffffffffffffffffffffffffffffffffffffffff021916908373ffffffffffffffffffffffffffffffffffffffff16021790555050565b60015481565b6060600060015467ffffffffffffffff8111156105c5576105c4610b6a565b5b6040519080825280602002602001820160405280156105f35781602001602082028036833780820191505090505b50905060005b600154811015610697576003600082815260200190815260200160002060009054906101000a900473ffffffffffffffffffffffffffffffffffffffff1682828151811061064a57610649610b99565b5b602002602001019073ffffffffffffffffffffffffffffffffffffffff16908173ffffffffffffffffffffffffffffffffffffffff1681525050808061068f90610a90565b9150506105f9565b508091505090565b60007f68656c6c6f20776f726c64000000000000000000000000000000000000000000905090565b600080fd5b600073ffffffffffffffffffffffffffffffffffffffff82169050919050565b60006106f7826106cc565b9050919050565b610707816106ec565b811461071257600080fd5b50565b600081359050610724816106fe565b92915050565b6000602082840312156107405761073f6106c7565b5b600061074e84828501610715565b91505092915050565b60008115159050919050565b61076c81610757565b82525050565b60006020820190506107876000830184610763565b92915050565b6000819050919050565b6107a08161078d565b81146107ab57600080fd5b50565b6000813590506107bd81610797565b92915050565b6000602082840312156107d9576107d86106c7565b5b60006107e7848285016107ae565b91505092915050565b6107f9816106ec565b82525050565b600060208201905061081460008301846107f0565b92915050565b600060ff82169050919050565b6108308161081a565b811461083b57600080fd5b50565b60008135905061084d81610827565b92915050565b600060208284031215610869576108686106c7565b5b60006108778482850161083e565b91505092915050565b6108898161078d565b82525050565b60006020820190506108a46000830184610880565b92915050565b600081519050919050565b600082825260208201905092915050565b6000819050602082019050919050565b6108df816106ec565b82525050565b60006108f183836108d6565b60208301905092915050565b6000602082019050919050565b6000610915826108aa565b61091f81856108b5565b935061092a836108c6565b8060005b8381101561095b57815161094288826108e5565b975061094d836108fd565b92505060018101905061092e565b5085935050505092915050565b60006020820190508181036000830152610982818461090a565b905092915050565b6000819050919050565b61099d8161098a565b82525050565b60006020820190506109b86000830184610994565b92915050565b600082825260208201905092915050565b7f43616e6e6f6e207769746864726177206d6f7265207468616e20302c3120657460008201527f6865720000000000000000000000000000000000000000000000000000000000602082015250565b6000610a2b6023836109be565b9150610a36826109cf565b604082019050919050565b60006020820190508181036000830152610a5a81610a1e565b9050919050565b7f4e487b7100000000000000000000000000000000000000000000000000000000600052601160045260246000fd5b6000610a9b8261078d565b91507fffffffffffffffffffffffffffffffffffffffffffffffffffffffffffffffff8203610acd57610acc610a61565b5b600182019050919050565b7f6f6e6c79206f776e65722063616e2063616c6c20746869732066756e6374696f60008201527f6e00000000000000000000000000000000000000000000000000000000000000602082015250565b6000610b346021836109be565b9150610b3f82610ad8565b604082019050919050565b60006020820190508181036000830152610b6381610b27565b9050919050565b7f4e487b7100000000000000000000000000000000000000000000000000000000600052604160045260246000fd5b7f4e487b7100000000000000000000000000000000000000000000000000000000600052603260045260246000fdfea2646970667358221220c70b7192460a308ebcddc76996f5f2473812ff44cbce2962e5472cb8238d3c2964736f6c634300080d0033",
  "immutableReferences": {},
  "source": "// SPDX-License-Identifier: MIT\npragma solidity >=0.4.22 <0.9.0;\nimport \"./Owned.sol\";\nimport \"./Logger.sol\";\nimport \"./IFaucet.sol\";\n\ncontract Faucet is Owned, Logger, IFaucet {\n    uint256 public numberOfFunders;\n    mapping(address => bool) public funders;\n    mapping(uint256 => address) public lutFunders;\n\n    modifier limitWithdraw(uint256 withdrawAmount) {\n        require(\n            withdrawAmount <= 100000000000000000,\n            \"Cannon withdraw more than 0,1 ether\"\n        );\n        _;\n    }\n\n    receive() external payable {}\n\n    function emitLog() public pure override returns (bytes32) {\n        return \"hello world\";\n    }\n\n    function ransferOwner(address newOwner) external onlyOwner {\n        owner = newOwner;\n    }\n\n    function addFunds() external payable override {\n        address funder = msg.sender;\n        if (!funders[funder]) {\n            uint256 index = numberOfFunders++;\n            funders[funder] = true;\n            lutFunders[index] = msg.sender;\n        }\n    }\n\n    function withdraw(uint256 withdrawAmount)\n        external\n        override\n        limitWithdraw(withdrawAmount)\n    {\n        payable(msg.sender).transfer(withdrawAmount);\n    }\n\n    function getFunders() external view returns (address[] memory) {\n        address[] memory _funders = new address[](numberOfFunders);\n\n        for (uint256 i = 0; i < numberOfFunders; i++) {\n            _funders[i] = lutFunders[i];\n        }\n\n        return _funders;\n    }\n\n    function getFundertIndex(uint8 index) external view returns (address) {\n        return lutFunders[index];\n    }\n}\n",
  "sourcePath": "/Users/cipher/Documents/react/blockchain/faucet/contracts/FaucetContract.sol",
  "compiler": {
    "name": "solc",
    "version": "0.8.13+commit.abaa5c0e.Emscripten.clang"
  },
  "schemaVersion": "3.4.6",
  "updatedAt": "2022-04-11T18:18:58.832Z",
  "networkType": "ethereum",
  "devdoc": {
    "kind": "dev",
    "methods": {},
    "version": 1
  },
  "userdoc": {
    "kind": "user",
    "methods": {},
    "version": 1
  }
}